:100000000C9462000C948A000C948A000C948A0070
:100010000C948A000C948A000C948A000C948A0038
:100020000C948A000C948A000C948A000C948A0028
:100030000C948A000C948A000C948A000C948A0018
:100040000C943A030C948A000C94AA030C94840335
:100050000C948A000C948A000C948A000C948A00F8
:100060000C948A000C948A000000000024002700F1
:100070002A000000000023002600290000000000E4
:10008000250028002B0004040404040404040202D4
:100090000202020203030303030301020408102007
:1000A0004080010204081020010204081020000012
:1000B0000008000201000003040700000000000027
:1000C0000000310411241FBECFEFD8E0DEBFCDBF4A
:1000D00011E0A0E0B1E0EAE1FFE002C005900D927E
:1000E000A437B107D9F722E0A4E7B1E001C01D921F
:1000F000A139B207E1F710E0C2E6D0E004C02197D1
:10010000FE010E948507C136D107C9F70E94790414
:100110000C948B070C940000833081F028F481301C
:1001200099F08230A9F008958730A9F08830C9F09D
:100130008430B1F4809180008F7D03C08091800075
:100140008F7780938000089584B58F7784BD08955C
:1001500084B58F7DFBCF8091B0008F778093B00006
:1001600008958091B0008F7DF9CF1F93CF93DF93D7
:10017000282F30E0F901E255FF4F8491F901E6564E
:10018000FF4FD491F901EA57FF4FC491CC23A9F056
:10019000162F81110E948C00EC2FF0E0EE0FFF1F54
:1001A000E458FF4FA591B4918FB7F894EC911111D9
:1001B00008C0D095DE23DC938FBFDF91CF911F91D4
:1001C0000895DE2BF8CF3FB7F8948091E401909129
:1001D000E501A091E601B091E70126B5A89B05C015
:1001E0002F3F19F00196A11DB11D3FBFBA2FA92FB6
:1001F000982F8827BC01CD01620F711D811D911DB3
:1002000042E0660F771F881F991F4A95D1F708951E
:100210008F929F92AF92BF92CF92DF92EF92FF9216
:100220004B015C010E94E3006B017C010E94E30032
:100230006C197D098E099F09683E734081059105FF
:10024000A8F321E0821A9108A108B10888EEC80E2F
:1002500083E0D81EE11CF11C81149104A104B104B7
:1002600029F7FF90EF90DF90CF90BF90AF909F90D5
:100270008F900895AF92BF92CF92DF92EF92FF924C
:100280000F931F93CF93DF936C017B018B01040FBE
:10029000151FEB015E01AE18BF08C017D10759F05A
:1002A0006991D601ED91FC910190F081E02DC6019C
:1002B0000995892B79F7C501DF91CF911F910F9196
:1002C000FF90EF90DF90CF90BF90AF900895FC012A
:1002D000538D448D252F30E0842F90E0821B930BAB
:1002E000541710F0CF96089501970895FC01918D51
:1002F000828D981761F0A28DAE0FBF2FB11D5D9654
:100300008C91928D9F5F9F73928F90E008958FEFF5
:100310009FEF0895FC01918D828D981731F0828DA9
:10032000E80FF11D858D90E008958FEF9FEF089500
:10033000FC01918D228D892F90E0805C9F4F821B64
:1003400091098F739927089588EE91E00E94980192
:1003500021E0892B09F420E0822F089580E090E0CD
:10036000892B29F00E94A40181110C9400000895AA
:10037000FC01A48DA80FB92FB11DA35ABF4F2C911A
:10038000848D90E001968F739927848FA689B78911
:100390002C93A089B1898C91837080648C93938D08
:1003A000848D981306C00288F389E02D80818F7DAB
:1003B00080830895EF92FF920F931F93CF93DF9363
:1003C000EC0181E0888F9B8D8C8D98131AC0E88991
:1003D000F989808185FF15C09FB7F894EE89FF8960
:1003E0006083E889F98980818370806480839FBFFE
:1003F00081E090E0DF91CF911F910F91FF90EF90FE
:100400000895F62E0B8D10E00F5F1F4F0F7311270D
:10041000E02E8C8D8E110CC00FB607FCFACFE88948
:10042000F989808185FFF5CFCE010E94B801F1CF17
:10043000EB8DEC0FFD2FF11DE35AFF4FF0829FB7BC
:10044000F8940B8FEA89FB8980818062CFCFCF93AC
:10045000DF93EC01888D8823B9F0AA89BB89E889EC
:10046000F9898C9185FD03C0808186FD0DC00FB692
:1004700007FCF7CF8C9185FFF2CF808185FFEDCF10
:10048000CE010E94B801E9CFDF91CF91089561E0DC
:10049000FC0182810C94B50061110C94470260E06C
:1004A000FC0182810C94B500CF93DF93FC01218184
:1004B00030E0F901E255FF4F8491F901E656FF4F14
:1004C000D491F901EA57FF4FC491CC2399F08111DF
:1004D0000E948C00EC2FF0E0EE0FFF1FEE58FF4F54
:1004E000A591B491EC91ED2381E009F080E0DF91DA
:1004F000CF91089581E0FBCFFC0101900020E9F746
:100500003197AF01481B590BBC0188EE91E00C9468
:100510003A01CF93DF930E947C02EC0186E191E0E7
:100520000E947C028C0F9D1FDF91CF910895CF9286
:10053000DF92EF92FF920F931F93CF93DF93CDB78C
:10054000DEB7A1970FB6F894DEBF0FBECDBF8AE02D
:10055000C82ED12CE12CF12C8091DD019091DE018F
:100560002091DB013091DC01281739070CF46DC0B4
:10057000815020E0843628F4E82FF0E0E958FE4F5F
:1005800020812093740130E050E040E019A28E01F8
:100590000F5D1F4FCA01B901A70196010E945407C0
:1005A000605DF80162938F01211531054105510508
:1005B00089F7309719F0CF010E947C0289E191E020
:1005C0000E947C02809174018230C9F160F5813013
:1005D00089F16EEE72E080E090E00E940801809167
:1005E000DD019091DE0101969093DE018093DD01A3
:1005F00060E08EE892E00E944C0260E08BE892E0BE
:100600000E944C0260E088E892E00E944C0260E0A8
:1006100085E892E00E944C026EEE72E080E090E08D
:100620000E94080199CF833069F0843091F685E803
:1006300092E002C08EE892E00E944702CACF8BE8A7
:1006400092E0FACF88E892E0F7CF81E090E09093D3
:10065000DE018093DD01A1960FB6F894DEBF0FBED8
:10066000CDBFDF91CF911F910F91FF90EF90DF9061
:10067000CF9008951F920F920FB60F9211242F93CF
:100680003F938F939F93AF93BF938091E00190919D
:10069000E101A091E201B091E3013091DF0123E09B
:1006A000230F2D3758F50196A11DB11D2093DF01B1
:1006B0008093E0019093E101A093E201B093E30104
:1006C0008091E4019091E501A091E601B091E701EC
:1006D0000196A11DB11D8093E4019093E501A093C3
:1006E000E601B093E701BF91AF919F918F913F9148
:1006F0002F910F900FBE0F901F90189526E8230F93
:100700000296A11DB11DD2CF1F920F920FB60F926C
:1007100011242F933F934F935F936F937F938F9306
:100720009F93AF93BF93EF93FF9388EE91E00E9466
:10073000B801FF91EF91BF91AF919F918F917F9100
:100740006F915F914F913F912F910F900FBE0F903E
:100750001F9018951F920F920FB60F9211242F938E
:100760008F939F93EF93FF93E091F801F091F9013C
:100770008081E091FE01F091FF0182FD1BC090811C
:10078000809101028F5F8F7320910202821741F0E6
:10079000E0910102F0E0E851FE4F958F8093010255
:1007A000FF91EF919F918F912F910F900FBE0F901E
:1007B0001F9018958081F4CFCF93DF93EC0169836C
:1007C0004A832883809175018F5F8093750170E063
:1007D000FB01E656FF4F24916A577F4FFB0184913E
:1007E0008823C9F090E0880F991FFC01E859FF4F5A
:1007F00045915491FC01E458FF4FA591B4919FB7E6
:10080000F894FA013081822F809583238083EC91C4
:100810002E2B2C939FBF60E08A810E94B5008A81B5
:1008200090E0FC01E656FF4F24918A579F4FFC0150
:100830008491882399F090E0880F991FFC01E85972
:10084000FF4FA591B491FC01E458FF4F859194911D
:100850008FB7F894EC91E22BEC938FBFDF91CF919F
:100860000895E8EEF1E01382128288EE93E0A0E0B2
:10087000B0E084839583A683B78388E091E0918379
:10088000808385EC90E09587848784EC90E097875F
:10089000868780EC90E0918B808B81EC90E0938B4D
:1008A000828B82EC90E0958B848B86EC90E0978B2A
:1008B000868B118E128E138E148E21E045E067E038
:1008C0008EE892E00E94DC0322E046E068E08BE8DC
:1008D00092E00E94DC0323E049E06CE088E892E0CB
:1008E0000E94DC0324E04AE06DE085E892E00C948D
:1008F000DC03789484B5826084BD84B5816084BD56
:1009000085B5826085BD85B5816085BD80916E00AD
:10091000816080936E0010928100809181008260DE
:10092000809381008091810081608093810080911B
:1009300080008160809380008091B100846080930A
:10094000B1008091B00081608093B00080917A0006
:10095000846080937A0080917A00826080937A002C
:1009600080917A00816080937A0080917A0080681B
:1009700080937A001092C100E091F801F091F901A2
:1009800082E08083E091F401F091F5011082E09122
:10099000F601F091F7018FEC808310920002E09154
:1009A000FC01F091FD0186E08083E091FA01F09175
:1009B000FB01808180618083E091FA01F091FB016D
:1009C000808188608083E091FA01F091FB01808151
:1009D00080688083E091FA01F091FB0180818F7D36
:1009E00080838BE191E00E94890280E480937C0007
:1009F00080917A00806480937A0080917A0086FDED
:100A0000FCCF6091780070917900072E000C880B64
:100A1000990B611571058105910511F00E94190767
:100A200010927601C3E6D0E080917601843648F5D5
:100A30008091750190E001966C01092E000CEE0882
:100A4000FF0841E050E060E070E0019781F00E9413
:100A5000CA06A701960121503109410951090E9496
:100A60002207AB01BC014F5F5F4F6F4F7F4F8091FB
:100A70007601E82FF0E0E958FE4F40838F5F8093C6
:100A80007601219789F681E090E09093DE018093D2
:100A9000DD0182E090E09093DC018093DB010E9415
:100AA0009702C0E0D0E001E010E08EE892E00E9402
:100AB0005402882309F184E291E00E9489028EE8C1
:100AC00092E00E94470268EC70E080E090E00E94B3
:100AD000080160E08EE892E00E944C028EE892E00D
:100AE0000E945402882309F4E7C06AE070E080E0C5
:100AF00090E00E940801F2CF8BE892E00E9454023D
:100B0000882309F182E391E00E9489028BE892E058
:100B10000E94470268EC70E080E090E00E940801CB
:100B200060E08BE892E00E944C028BE892E00E9429
:100B30005402882309F4DCC06AE070E080E090E0B1
:100B40000E940801F2CF88E892E00E9454028823B4
:100B500009F180E491E00E94890288E892E00E9415
:100B6000470268EC70E080E090E00E94080160E0DD
:100B700088E892E00E944C0288E892E00E945402C9
:100B8000882309F4B7C06AE070E080E090E00E943A
:100B90000801F2CF85E892E00E945402882309F40C
:100BA00084CF8EE491E00E94890285E892E00E9461
:100BB000470268EC70E080E090E00E94080160E08D
:100BC00085E892E00E944C0285E892E00E9454027F
:100BD000882309F491C06AE070E080E090E00E9410
:100BE0000801F2CFF0E0E958FE4F908198136BC0F6
:100BF0008CE591E00E9489022091DD013091DE01B7
:100C00008091DB019091DC01281739078CF42F5F6C
:100C10003F4F3093DE012093DD01209709F445CF4B
:100C20000E94A401882309F440CF0E9400003DCF18
:100C30008336910564F401969093DC018093DB0187
:100C40001093DE010093DD010E949702E6CF84E657
:100C500091E00E94890260E08EE892E00E944C02DE
:100C600060E08BE892E00E944C0260E088E892E04D
:100C70000E944C0260E085E892E00E944C026AEF1C
:100C800070E080E090E00E9408018EE892E00E940F
:100C900047028BE892E00E94470288E892E00E94B7
:100CA000470285E892E00E9447026AEF70E080E028
:100CB00090E00E940801CFCF81E0E091DD01E1509A
:100CC000E43608F48FCF89E691E00E9489028EE82D
:100CD00092E00E9447028BE892E00E94470288E877
:100CE00092E00E94470285E892E00E944702FFCF0F
:100CF00082E0E3CF83E0E1CF84E0DFCF8F929F9269
:100D0000AF92BF92CF92DF92EF92FF92CF93DF9399
:100D1000EC01688179818A819B816115710581056A
:100D2000910521F464E279ED8BE597E02DE133EF55
:100D300041E050E00E94220749015A019B01AC01A9
:100D4000A7EAB1E40E9441076B017C01ACEEB4EF6D
:100D5000A50194010E944F07C60ED71EE81EF91E7A
:100D6000F7FE06C081E0C81AD108E10880E8F80A59
:100D7000C882D982EA82FB82C701B6019F77DF91E0
:100D8000CF91FF90EF90DF90CF90BF90AF909F906A
:100D90008F9008958F929F92AF92BF92CF92DF92E1
:100DA000EF92FF9260910001709101018091020128
:100DB00090910301611571058105910521F464E2AB
:100DC00079ED8BE597E02DE133EF41E050E00E94B3
:100DD000220749015A019B01AC01A7EAB1E40E9434
:100DE00041076B017C01ACEEB4EFA50194010E94B8
:100DF0004F07C60ED71EE81EF91EF7FE06C081E09B
:100E0000C81AD108E10880E8F80AC0920001D0921F
:100E10000101E0920201F0920301C701B6019F7740
:100E2000FF90EF90DF90CF90BF90AF909F908F900A
:100E300008956093000170930101809302019093E3
:100E400003010895052E97FB1EF400940E943907B4
:100E500057FD07D00E94540707FC03D04EF40C94B2
:100E6000390750954095309521953F4F4F4F5F4F33
:100E7000089590958095709561957F4F8F4F9F4F06
:100E800008950E947607A59F900DB49F900DA49F92
:100E9000800D911D11240895B7FF0C9441070E9405
:100EA0004107821B930B0895A1E21A2EAA1BBB1BBC
:100EB000FD010DC0AA1FBB1FEE1FFF1FA217B30726
:100EC000E407F50720F0A21BB30BE40BF50B661F3C
:100ED000771F881F991F1A9469F760957095809500
:100EE00090959B01AC01BD01CF010895A29FB00177
:100EF000B39FC001A39F700D811D1124911DB29F4E
:100F0000700D811D1124911D0895EE0FFF1F059096
:0A0F1000F491E02D0994F894FFCF4E
:100F1A000100000000000000DA013A01670127021F
:100F2A00980176018A010D0A002000466F6C6C6FE9
:100F3A00774D6500507265737365642042544E5F45
:100F4A003100507265737365642042544E5F3200FB
:100F5A00507265737365642042544E5F3300507259
:100F6A0065737365642042544E5F3400436F727236
:100F7A00656E740057696E210047616D65204F7672
:040F8A00657200008C
:00000001FF
