:100000000C945D000C9485000C9485000C94850084
:100010000C9485000C9485000C9485000C9485004C
:100020000C9485000C9485000C9485000C9485003C
:100030000C9485000C9485000C9485000C9485002C
:100040000C941F020C9485000C948F020C9469028E
:100050000C9485000C9485000C9485000C9485000C
:100060000C9485000C9485000000000024002700FB
:100070002A0000000000250028002B0004040404CE
:100080000404040402020202020203030303030342
:10009000010204081020408001020408102001021F
:1000A00004081020000000080002010000030407FB
:1000B0000000000000000000160311241FBECFEF57
:1000C000D8E0DEBFCDBF11E0A0E0B1E0E2E2FCE0AD
:1000D00002C005900D92A632B107D9F721E0A6E241
:1000E000B1E001C01D92A03EB207E1F710E0CDE5FE
:1000F000D0E004C02197FE010E940906CC35D1074B
:10010000C9F70E945E030C940F060C94000090E067
:10011000FC01EC55FF4F2491FC01E057FF4F349157
:10012000FC01E458FF4FE491EE23C9F0222339F09B
:10013000233001F1A8F4213019F1223029F1F0E047
:10014000EE0FFF1FEE58FF4FA591B4918FB7F894B3
:10015000EC91611126C030953E233C938FBF0895EA
:100160002730A9F02830C9F0243049F78091800069
:100170008F7D03C0809180008F7780938000DFCFD8
:1001800084B58F7784BDDBCF84B58F7DFBCF809125
:10019000B0008F778093B000D2CF8091B0008F7D78
:1001A000F9CF3E2BDACF3FB7F8948091330190918D
:1001B0003401A0913501B091360126B5A89B05C048
:1001C0002F3F19F00196A11DB11D3FBFBA2FA92FD6
:1001D000982F8827BC01CD01620F711D811D911DD3
:1001E00042E0660F771F881F991F4A95D1F708953F
:1001F000AF92BF92CF92DF92EF92FF920F931F9335
:10020000CF93DF936C017B018B01040F151FEB0172
:100210005E01AE18BF08C017D10759F06991D60129
:10022000ED91FC910190F081E02DC6010995892B9B
:1002300079F7C501DF91CF911F910F91FF90EF905A
:10024000DF90CF90BF90AF900895FC01538D448D07
:10025000252F30E0842F90E0821B930B541710F071
:10026000CF96089501970895FC01918D828D98177E
:1002700061F0A28DAE0FBF2FB11D5D968C91928D56
:100280009F5F9F73928F90E008958FEF9FEF089587
:10029000FC01918D828D981731F0828DE80FF11D50
:1002A000858D90E008958FEF9FEF0895FC01918D6B
:1002B000228D892F90E0805C9F4F821B91098F7364
:1002C0009927089587E391E00E94560121E0892B48
:1002D00009F420E0822F089580E090E0892B29F036
:1002E0000E94620181110C9400000895FC01A48D0C
:1002F000A80FB92FB11DA35ABF4F2C91848D90E048
:1003000001968F739927848FA689B7892C93A0892A
:10031000B1898C91837080648C93938D848D9813B4
:1003200006C00288F389E02D80818F7D8083089547
:10033000EF92FF920F931F93CF93DF93EC0181E035
:10034000888F9B8D8C8D98131AC0E889F9898081DC
:1003500085FF15C09FB7F894EE89FF896083E8890F
:10036000F98980818370806480839FBF81E090E001
:10037000DF91CF911F910F91FF90EF900895F62E8E
:100380000B8D10E00F5F1F4F0F731127E02E8C8D28
:100390008E110CC00FB607FCFACFE889F98980816D
:1003A00085FFF5CFCE010E947601F1CFEB8DEC0FEA
:1003B000FD2FF11DE35AFF4FF0829FB7F8940B8F8A
:1003C000EA89FB8980818062CFCFCF93DF93EC01F4
:1003D000888D8823B9F0AA89BB89E889F9898C912D
:1003E00085FD03C0808186FD0DC00FB607FCF7CFE9
:1003F0008C9185FFF2CF808185FFEDCFCE010E94E9
:100400007601E9CFDF91CF91089561E0FC0182810F
:100410000C94870061110C94050260E0FC0182815C
:100420000C948700FC0101900020E9F73197AF019F
:10043000481B590BBC0187E391E00C94F8001F9214
:100440000F920FB60F9211242F933F938F939F9388
:10045000AF93BF9380912F0190913001A091310112
:10046000B091320130912E0123E0230F2D3758F542
:100470000196A11DB11D20932E0180932F01909311
:100480003001A0933101B0933201809133019091FA
:100490003401A0913501B09136010196A11DB11D25
:1004A0008093330190933401A0933501B0933601CA
:1004B000BF91AF919F918F913F912F910F900FBE60
:1004C0000F901F90189526E8230F0296A11DB11DCD
:1004D000D2CF1F920F920FB60F9211242F933F93FA
:1004E0004F935F936F937F938F939F93AF93BF933C
:1004F000EF93FF9387E391E00E947601FF91EF91E4
:10050000BF91AF919F918F917F916F915F914F912B
:100510003F912F910F900FBE0F901F9018951F9233
:100520000F920FB60F9211242F938F939F93EF93F7
:10053000FF93E0914701F09148018081E0914D01E6
:10054000F0914E0182FD1BC09081809150018F5F20
:100550008F7320915101821741F0E0915001F0E03A
:10056000E95CFE4F958F80935001FF91EF919F9131
:100570008F912F910F900FBE0F901F901895808133
:10058000F4CFCF93DF93EC0169834A832883809172
:1005900026018F5F8093260170E0FB01E057FF4F3B
:1005A000249164587F4FFB0184918823C9F090E027
:1005B000880F991FFC01E859FF4F45915491FC01A8
:1005C000EE58FF4FA591B4919FB7F894FA0130818E
:1005D000822F809583238083EC912E2B2C939FBFB9
:1005E00060E08A810E9487008A8190E0FC01E057E8
:1005F000FF4F249184589F4FFC018491882399F0E8
:1006000090E0880F991FFC01E859FF4FA591B49124
:10061000FC01EE58FF4F859194918FB7F894EC91BF
:10062000E22BEC938FBFDF91CF910895E7E3F1E0E8
:100630001382128288EE93E0A0E0B0E08483958379
:10064000A683B7838AE091E09183808385EC90E074
:100650009587848784EC90E09787868780EC90E08C
:10066000918B808B81EC90E0938B828B82EC90E07D
:10067000958B848B86EC90E0978B868B118E128EF7
:10068000138E148E21E045E067E08DED91E00E942D
:10069000C10222E046E068E08AED91E00E94C102DA
:1006A00023E049E06CE087ED91E00E94C10224E084
:1006B0004AE06DE084ED91E00C94C102CF93DF93AA
:1006C000CDB7DEB7A1970FB6F894DEBF0FBECDBF92
:1006D000789484B5826084BD84B5816084BD85B51D
:1006E000826085BD85B5816085BD80916E00816029
:1006F00080936E00109281008091810082608093CF
:1007000081008091810081608093810080918000D0
:100710008160809380008091B10084608093B100FB
:100720008091B00081608093B00080917A008460F5
:1007300080937A0080917A00826080937A00809121
:100740007A00816080937A0080917A00806880933B
:100750007A001092C100E0914701F091480182E0D7
:100760008083E0914301F09144011082E0914501C2
:10077000F09146018FEC808310924F01E0914B0184
:10078000F0914C0186E08083E0914901F0914A01AB
:10079000808180618083E0914901F0914A018081EC
:1007A00088608083E0914901F0914A0180818068EE
:1007B0008083E0914901F0914A0180818F7D80839F
:1007C00088E191E00E94120281E291E00E9412020F
:1007D00080E480937C0080917A00806480937A002A
:1007E00080917A0086FDFCCF60917800709179004D
:1007F000072E000C880B990B611571058105910579
:1008000011F00E949D051092270104E010E08091F4
:100810002701853048F58091260190E001966C0112
:10082000092E000CEE08FF0841E050E060E070E0A7
:10083000019781F00E944E05A701960121503109D0
:10084000410951090E94A605AB01BC014F5F5F4FF2
:100850006F4F7F4F80912701E82FF0E0E85DFE4F5A
:1008600040838F5F809327010150110981F69AE040
:10087000492E512C612C712C20E0222E20E0322EAA
:1008800001E010E080910001909101018530910517
:100890000CF0AFC0EFEFE80F20E0E53020F4F0E01F
:1008A000E85DFE4F208120932D0101969093010178
:1008B0008093000130E050E040E019A27E0181E227
:1008C000E80EF11CCA01B901A30192010E94D805EA
:1008D000605DF70162937F012115310541055105E6
:1008E00089F7309719F0CF010E94120284E291E05B
:1008F0000E94120280912D01823009F461C0A0F59E
:10090000813009F449C00E94D3006B017C0188EE5C
:10091000882E83E0982EA12CB12C0E94D3006C1954
:100920007D098E099F09683E734081059105A8F3F2
:10093000F1E08F1A9108A108B10828EEC20E23E059
:10094000D21EE11CF11C81149104A104B10429F709
:100950002114310409F496CF0E946201882309F41E
:1009600091CF0E9400008ECF8330A1F1843059F6E0
:1009700060E08DED91E00E940A0260E08AED91E076
:100980000E940A0260E087ED91E00E940A0284ED75
:1009900091E00E940502B7CF8DED91E00E94050223
:1009A00060E08AED91E00E940A0260E087ED91E04C
:1009B0000E940A0260E084ED91E00E940A02A3CF47
:1009C00060E08DED91E00E940A028AED91E00E94C4
:1009D0000502EBCF60E08DED91E00E940A0260E03D
:1009E0008AED91E00E940A0287ED91E00E940502E3
:1009F000E1CF109301010093000181E291E00E9498
:100A00001202A6CF8F929F92AF92BF92CF92DF92A7
:100A1000EF92FF92CF93DF93EC01688179818A8115
:100A20009B81611571058105910521F464E279EDE1
:100A30008BE597E02DE133EF41E050E00E94A60501
:100A400049015A019B01AC01A7EAB1E40E94C50526
:100A50006B017C01ACEEB4EFA50194010E94D305BB
:100A6000C60ED71EE81EF91EF7FE06C081E0C81AA2
:100A7000D108E10880E8F80AC882D982EA82FB82BC
:100A8000C701B6019F77DF91CF91FF90EF90DF9084
:100A9000CF90BF90AF909F908F9008958F929F922C
:100AA000AF92BF92CF92DF92EF92FF9260910201DC
:100AB0007091030180910401909105016115710508
:100AC0008105910521F464E279ED8BE597E02DE154
:100AD00033EF41E050E00E94A60549015A019B0115
:100AE000AC01A7EAB1E40E94C5056B017C01ACEE44
:100AF000B4EFA50194010E94D305C60ED71EE81ECF
:100B0000F91EF7FE06C081E0C81AD108E10880E8A6
:100B1000F80AC0920201D0920301E0920401F0921F
:100B20000501C701B6019F77FF90EF90DF90CF904E
:100B3000BF90AF909F908F90089560930201709343
:100B4000030180930401909305010895052E97FBFE
:100B50001EF400940E94BD0557FD07D00E94D805E1
:100B600007FC03D04EF40C94BD055095409530958C
:100B700021953F4F4F4F5F4F089590958095709509
:100B800061957F4F8F4F9F4F08950E94FA05A59F53
:100B9000900DB49F900DA49F800D911D1124089578
:100BA000B7FF0C94C5050E94C505821B930B0895E1
:100BB000A1E21A2EAA1BBB1BFD010DC0AA1FBB1F61
:100BC000EE1FFF1FA217B307E407F50720F0A21BD3
:100BD000B30BE40BF50B661F771F881F991F1A9440
:100BE00069F760957095809590959B01AC01BD016A
:100BF000CF010895A29FB001B39FC001A39F700DC4
:100C0000811D1124911DB29F700D811D1124911D14
:100C10000895EE0FFF1F0590F491E02D0994F894CC
:020C2000FFCF04
:100C2200010001000000000000009801F800250109
:100C3200E501560134014801466F6C6C6F774D65D2
:060C4200000D0A00200075
:00000001FF
