:100000000C945D000C9485000C9485000C94850084
:100010000C9485000C9485000C9485000C9485004C
:100020000C9485000C9485000C9485000C9485003C
:100030000C9485000C9485000C9485000C9485002C
:100040000C9487000C9485000C9485000C9485001A
:100050000C9485000C9485000C9485000C9485000C
:100060000C9485000C94850000000008000201003B
:100070000003040700000000000000000000000072
:10008000250028002B0000000000240027002A0083
:10009000040404040404040402020202020203032E
:1000A0000303030301020408102040800102040836
:1000B0001020010204081020C00111241FBECFEF40
:1000C000D8E0DEBFCDBF11E0A0E0B1E0E8ECF3E0A6
:1000D00002C005900D92A030B107D9F721E0A0E051
:1000E000B1E001C01D92A631B207E1F710E0CDE505
:1000F000D0E004C02197FE010E94DC01CC35D1077D
:10010000C9F70E9476010C94E2010C9400001F9242
:100110000F920FB60F9211242F933F938F939F93BB
:10012000AF93BF938091120190911301A09114019C
:10013000B09115013091110123E0230F2D3758F5AF
:100140000196A11DB11D209311018093120190937E
:100150001301A0931401B093150180910D019091AA
:100160000E01A0910F01B09110010196A11DB11DCA
:1001700080930D0190930E01A0930F01B093100195
:10018000BF91AF919F918F913F912F910F900FBE93
:100190000F901F90189526E8230F0296A11DB11D00
:1001A000D2CFCF93DF93DC0111966C931197129607
:1001B0004C9312972C93809100018F5F80930001E4
:1001C00070E0FB01EC55FF4F849160577F4FFB01BE
:1001D00024912223C9F030E0220F331FF901EA579E
:1001E000FF4F45915491F901E458FF4FC591D491C7
:1001F0002FB7F894FA013081982F9095932390832C
:10020000E8818E2B88832FBF12968C91129790E0F5
:10021000FC01E859FF4F2491FC01EC55FF4F34914C
:10022000FC01E057FF4FE491EE23D9F0222359F06F
:10023000233009F444C008F037C0213009F445C028
:10024000223009F446C0F0E0EE0FFF1FE458FF4FE4
:10025000C591D4918FB7F894E88130953E233883C7
:100260008FBF12968C9190E0FC01EC55FF4F2491CA
:1002700080579F4FFC018491882399F090E0880F6C
:10028000991FFC01EA57FF4FA591B491FC01E45876
:10029000FF4F859194918FB7F894EC91E22BEC93FA
:1002A0008FBFDF91CF9108952730B1F02830D1F082
:1002B000243009F0C8CF809180008F7D03C08091E9
:1002C00080008F7780938000BECF84B58F7784BD08
:1002D000BACF84B58F7DFBCF8091B0008F778093AC
:1002E000B000B1CF8091B0008F7DF9CF789484B504
:1002F000826084BD84B5816084BD85B5826085BD22
:1003000085B5816085BD80916E00816080936E00AF
:1003100010928100809181008260809381008091A1
:100320008100816080938100809180008160809352
:1003300080008091B10084608093B1008091B00012
:1003400081608093B00080917A00846080937A000D
:1003500080917A00826080937A0080917A00816037
:1003600080937A0080917A00806880937A0010925E
:10037000C100C0E0D0E02097F1F30E940000FBCF65
:1003800021E045E067E08AE091E00E94D10022E0B0
:1003900046E068E087E091E00E94D10023E049E078
:1003A0006CE084E091E00E94D10024E04AE06DE03E
:1003B00081E091E00C94D100EE0FFF1F0590F491C5
:0803C000E02D0994F894FFCF31
:00000001FF
